:100000000C9454010C947C010C947C010C947C01A4
:100010000C947C010C947C010C947C010C947C016C
:100020000C947C010C947C010C947C010C947C015C
:100030000C947C010C947C010C947C010C947C014C
:100040000C9486050C947C010C944C050C941105C1
:100050000C947C010C947C010C947C010C947C012C
:100060000C947C010C947C0150415F4D4158005030
:10007000415F484947480050415F4C4F570050414D
:100080005F4D494E0031362062697473003820623A
:100090006974730044697361626C6564006E5246F2
:1000A00032344C30312B006E524632344C303100F9
:1000B0003235304B42505300324D42505300314D97
:1000C000425053001112131415160A0B0C0D0E0F8B
:1000D0005354415455530909203D2030782530327E
:1000E000782052585F44523D25782054585F44533D
:1000F0003D2578204D41585F52543D257820525877
:100100005F505F4E4F3D25782054585F46554C4C0C
:100110003D25780D0A00504120506F776572092007
:100120003D2025530D0A007E0077006F00680043D4
:100130005243204C656E67746809203D2025530D9D
:100140000A0094008D0085004D6F64656C090920DC
:100150003D2025530D0A00A7009D004461746120D5
:100160005261746509203D2025530D0A00BE00B878
:1001700000B00044594E50442F4645415455524515
:1001800000434F4E464947090052465F5345545578
:10019000500052465F43480900454E5F5258414463
:1001A000445200454E5F4141090052585F50575F2D
:1001B00050302D360054585F414444520900525883
:1001C0005F414444525F50322D350052585F4144E4
:1001D00044525F50302D3100000000002300260003
:1001E00029002076616C75653D00476F742072654B
:1001F00073706F6E73652073697A653D004661693F
:100200006C65642C20726573706F6E736520746901
:100210006D6564206F75742E004E6F772073656E68
:1002200064696E67206C656E67746820000000006A
:1002300000240027002A0000000000250028002BD1
:10024000000404040404040404020202020202037F
:100250000303030303010204081020408001020489
:10026000081020010204081020000000070002010D
:10027000000003040600000000000000000001026E
:100280000304050D0A00253032780020307800255F
:100290005309203D000D0A002030782530327800C7
:1002A000255309203D00D00511241FBECFEFD8E013
:1002B000DEBFCDBF11E0A0E0B1E0EAE4FCE102C0A6
:1002C00005900D92A631B107D9F722E0A6E1B1E081
:1002D00001C01D92A631B207E1F711E0C4E5D1E0FB
:1002E00004C02197FE010E941D0EC335D107C9F736
:1002F0000E9425060C94C40A0C94000090E0FC01B6
:10030000E759FD4F2491FC01EB5AFD4F3491FC015C
:10031000EF5BFD4FE491EE2309F43CC0222339F159
:10032000233091F038F42130A9F0223001F584B562
:100330008F7D12C0263091F02730A1F02430B9F41F
:10034000809180008F7D03C0809180008F778093A3
:1003500080000DC084B58F7784BD09C08091B00046
:100360008F7703C08091B0008F7D8093B000F0E064
:10037000EE0FFF1FE95CFD4FA591B4919FB7F89474
:10038000611104C08C913095382302C0EC913E2B52
:100390003C939FBF08952091F8013091F90140915D
:1003A000FA015091FB012417350721F0682F822FA5
:1003B0000C947E010895CF93DF9390E0FC01EB5AFB
:1003C000FD4F2491FC01EF5BFD4F8491882361F187
:1003D00090E0880F991FFC01E35DFD4FC591D4911A
:1003E000FC01E95CFD4FA591B491611109C09FB773
:1003F000F8948881209582238883EC912E230BC06A
:10040000623061F49FB7F8948881322F309583234E
:100410008883EC912E2B2C939FBF06C08FB7F89446
:10042000E8812E2B28838FBFDF91CF9108958EBD59
:100430000DB407FEFDCF8EB508950F931F93CF9394
:10044000DF93FC01A685B7858D01005C1F4FE80195
:100450008881998101968F739927AD014E5B5F4F1B
:10046000EA012881398128173907D1F3E801288169
:100470003981A20FB31F6C93A685B785A05CBF4FCF
:1004800011969C938E93A689B7892C9181E090E078
:10049000078C02C0880F991F0A94E2F7822B8C9375
:1004A00081E081A30488F589E02D808180648083C8
:1004B00081E090E0DF91CF911F910F910895CF934C
:1004C000DF936DE085ED91E00E941D02EC016AE092
:1004D00085ED91E00E941D028C0F9D1FDF91CF9151
:1004E00008950F931F93CF93DF9300E010E0FC017A
:1004F0006491EC012196662341F085ED91E00E9424
:100500001D02080F191FCE01F2CFC801DF91CF9154
:100510001F910F910895FC0181A1882329F0A489DE
:10052000B5898C9186FFFBCF11A20895FC01A485AB
:10053000B585FD01E05CFF4F2081318132968081DD
:1005400091812817390779F080819181A80FB91F0F
:100550008C91208131812F5F3F4F2F73332731835F
:10056000208390E008958FEF9FEF0895DC011C96A3
:10057000ED91FC911D97DF01A05CBF4F2D913C9147
:10058000119712968D919C9111972817390739F080
:100590008D919C91E80FF91F808190E008958FEF75
:1005A0009FEF0895FC0124853585F901E05CFF4F3C
:1005B00080819181329620813181821B930B8F73D0
:1005C0009927089585ED91E00C94D202019739F0B6
:1005D000880F991F880F991F02970197F1F70895C7
:1005E0000895CF92DF92EF92FF920F931F93CF93D4
:1005F000DF936C01EB017B01E40EF51E00E010E0DF
:10060000CE15DF0561F06991D601ED91FC91019065
:10061000F081E02DC6010995080F191FF1CFC8011F
:10062000DF91CF911F910F91FF90EF90DF90CF90CE
:1006300008958E3008F08E508770806480937C001F
:1006400080917A00806480937A0080917A0086FDA0
:10065000FCCF809178002091790090E0922B089552
:100660003FB7F8948091170190911801A09119015A
:10067000B0911A0126B5A89B05C02F3F19F001962D
:10068000A11DB11D3FBFBA2FA92F982F8827820F18
:10069000911DA11DB11DBC01CD0142E0660F771F68
:1006A000881F991F4A95D1F70895CF92DF92EF9254
:1006B000FF92CF93DF936B017C010E943003EB012B
:1006C000C114D104E104F10479F00E9430036C1BE1
:1006D0007D0B683E7340A0F381E0C81AD108E108A1
:1006E000F108C851DC4FECCFDF91CF91FF90EF9034
:1006F000DF90CF900895CF93DF939CB59F7D9CBDF5
:100700009CB5937F9CBD9CB59C7F9CBD9DB5916025
:100710009DBDC8EFD1E0682F8A810E947E018C893F
:100720009D89DF91CF910C94E60281E00C947B03CC
:1007300080E00C947B03CF93C82F0E9498038C2FEA
:100740008F710E9417028FEF0E941702C82F0E941C
:1007500095038C2FCF910895CF93C82F0E949803B3
:100760008C2F0E941702C82F0E9495038C2FCF91C7
:10077000089581EE0C94AC03CF93DF93C82FD62F4E
:100780000E9498038C2F8F7180620E941702C82FDD
:100790008D2F0E9417020E9495038C2FDF91CF911D
:1007A000089580E00E949B0381FD0BC0682F62606A
:1007B00080E00E94BC0365E070E080E090E00C9473
:1007C00055030895EF92FF920F931F93CF93DF93FA
:1007D000182F7B01C42F0E949803812F8F71806294
:1007E0000E941702D82F8701CC2339F0F80181919C
:1007F0008F010E941702C150F7CF0E9495038D2FE1
:10080000DF91CF911F910F91FF90EF9008950E947B
:10081000D10380E00E949B03682F616080E00E940A
:10082000BC0360E787E00E94BC0381E00E94CB012B
:1008300080910102882341F04091060261E072E05C
:100840008AE00E94E20312C082E00E949B03EDE76F
:10085000F2E0E49121E030E001C0220FEA95EAF7EE
:100860002095622F682382E00E94BC038DE10E94E4
:100870009B0381FD0C94B9030895FF920F931F937E
:10088000CF93DF93C62FD42F9F938F9380EA92E06C
:100890009F938F930E94C70ADC0F0F900F900F90C9
:1008A0000F9008E912E0CD1791F0FF24F394FC0EAD
:1008B0008C2F0E949B031F928F931F930F930E9474
:1008C000C70A0F900F900F900F90CF2DECCF85E9B6
:1008D00092E09F938F930E94C70A0F900F90DF9131
:1008E000CF911F910F91FF9008952F923F924F92B9
:1008F0005F926F927F928F929F92AF92BF92CF92B0
:10090000DF92EF92FF920F931F93CF93DF931F928B
:10091000CDB7DEB7962E342E4DB65EB69F938F932D
:100920008FE892E09F938F930E94C70A390C0F9033
:100930000F900F900F908BE8C82E82E0D82E96E88B
:10094000A92E92E0B92E931409F44AC06DB67EB672
:1009500020900602022D10E08DB79EB7801B910BF0
:100960000FB6F8949EBF0FBE8DBFEDB7FEB73196A0
:100970007F01F1E0F90DF9830E949803892D8F71B1
:100980000E9417024701222041F08FEF0E941702B8
:10099000F40181934F012A94F6CF0E949503DF92D0
:1009A000CF920E94C70A0E0D1F1D0F900F9001508D
:1009B00011090E151F0568F0F80180811F928F93B1
:1009C000BF92AF920E94C70A0F900F900F900F90A6
:1009D000EECF0FB6F8947EBE0FBE6DBE9980B3CF3A
:1009E00083E892E09F938F930E94C70A0F900F9025
:1009F0000FB6F8945EBE0FBE4DBE0F90DF91CF9143
:100A00001F910F91FF90EF90DF90CF90BF90AF902C
:100A10009F908F907F906F905F904F903F902F901E
:100A200008951F920F920FB60F9211242F933F93A8
:100A30008F939F93EF93FF9320918D0130918E01BF
:100A400080918F01909190012817390731F480919E
:100A5000C1008F7D8093C10014C0E0918F01F0919F
:100A60009001E35BFE4F208180918F019091900176
:100A700001968F7399279093900180938F01209313
:100A8000C600FF91EF919F918F913F912F910F9011
:100A90000FBE0F901F9018951F920F920FB60F92D6
:100AA00011242F934F935F938F939F93EF93FF9313
:100AB0008091C00082FD1CC02091C6008091D101B0
:100AC0009091D2014091D3015091D40101968F733E
:100AD00099274817590771F0E091D101F091D2019F
:100AE000EF56FE4F20839093D2018093D10102C034
:100AF0008091C600FF91EF919F918F915F914F91EF
:100B00002F910F900FBE0F901F9018951F920F926C
:100B10000FB60F9211242F933F938F939F93AF9310
:100B2000BF9380911B0190911C01A0911D01B09178
:100B30001E013091160123E0230F2D3720F401967A
:100B4000A11DB11D05C026E8230F0296A11DB11DF0
:100B50002093160180931B0190931C01A0931D010B
:100B6000B0931E018091170190911801A091190175
:100B7000B0911A010196A11DB11D809317019093A8
:100B80001801A0931901B0931A01BF91AF919F91E1
:100B90008F913F912F910F900FBE0F901F9018953E
:100BA000E5EDF1E01382128288EE93E0A0E0B0E080
:100BB00084839583A683B78384E091E091838083C7
:100BC00081E991E0958784878DE491E09787868716
:100BD00085EC90E0918B808B84EC90E0938B828B02
:100BE00080EC90E0958B848B81EC90E0978B868BEA
:100BF00082EC90E0918F808F86EC90E0938F828FD3
:100C000084E0848F83E0858F87E0868F85E0878FFF
:100C100091E090A3E8EFF1E029E030E03183208318
:100C20002AE030E033832283168290E29783108695
:100C3000868785E090E0A0E0B0E0848B958BA68B62
:100C4000B78B11861092F7010895CF93DF93CDB73C
:100C5000DEB7E9970FB6F894DEBF0FBECDBF78942C
:100C600084B5826084BD84B5816084BD85B58260B1
:100C700085BD85B5816085BD80916E008160809362
:100C80006E001092810080918100826080938100CB
:100C900080918100816080938100809180008160DB
:100CA000809380008091B10084608093B100809136
:100CB000B00081608093B00080917A00846080935E
:100CC0007A0080917A00826080937A0080917A0025
:100CD000816080937A0080917A00806880937A00A6
:100CE0001092C100E091E901F091EA0181E090E009
:100CF0009C010090F50102C0220F331F0A94E2F715
:100D00002083E091E501F091E6011082E091E70196
:100D1000F091E80120E120831092F601E091EB01CF
:100D2000F091EC0140819C010090F10102C0220F82
:100D3000331F0A94E2F7242B2083E091EB01F0911A
:100D4000EC0140819C010090F20102C0220F331F90
:100D50000A94E2F7242B2083E091EB01F091EC015F
:100D600040819C010090F30102C0220F331F0A94BE
:100D7000E2F7242B2083E091EB01F091EC0120813C
:100D80000090F40102C0880F991F0A94E2F7809541
:100D9000822380838091F8019091F9012091FA01DA
:100DA0003091FB018217930719F061E00E94DB018B
:100DB0008091FA019091FB012091F8013091F901A5
:100DC0002817390719F061E00E94DB0161E08AE031
:100DD0000E947E0161E08AE00E94DB018CB58061A7
:100DE0008CBD8CB580648CBD61E08DE00E94DB0120
:100DF00061E08BE00E94DB0180E00E94CB0181E09A
:100E00000E947B0365E070E080E090E00E94550363
:100E10006CE080E00E94BC036FE584E00E94BC03AC
:100E200086E00E949B03877D182F10628BE990E07B
:100E3000A0E0B0E08093080290930902A0930A0218
:100E4000B0930B02612F86E00E94BC0386E00E94F3
:100E50009B03181709F46AC386E00E949B0386E08F
:100E60000E949B0345E550E060E070E0409308027B
:100E70005093090260930A0270930B02682F677DFA
:100E800086E00E94BC0386E00E949B030E949803B8
:100E900080E50E94170283E70E9417020E949503D3
:100EA00060E08DE10E94BC0360E08CE10E94BC0325
:100EB0001092000260E787E00E94BC036CE485E0CA
:100EC0000E94BC0382EE0E94AC030E94B9030E9400
:100ED000D10380E00E949B03682F6E7F80E00E9418
:100EE000BC038DE10E949B03682F64608DE10E942A
:100EF000BC038CE10E949B03682F6F638CE10E940E
:100F0000BC0381E0809300026FEF84E00E94BC0389
:100F100082EC8AA310EF1BA31CA31DA31EA31FA278
:100F200018A619A640910602BE016E5D7F4F8AE0A9
:100F30000E94E20340910602BE016E5D7F4F80E198
:100F40000E94E2036091FF0181E10E94BC0382EDF7
:100F50008AA71BA71CA71DA71EA71FA618AA19AA08
:100F60004091060250E0BE01665D7F4F81E092E055
:100F70000E94D70DEAECF0E0849140910602BE0198
:100F8000665D7F4F0E94E203E4ECF0E084916091A3
:100F9000FF010E94BC0382E00E949B03EDE7F2E0A8
:100FA000E49161E070E001C0660FEA95EAF7682B12
:100FB00082E00E94BC030E9407048FEF0E94AC03F2
:100FC000282F30E0982F91701F929F933595279589
:100FD000277033273F932F9384FB992790F91F9213
:100FE0009F9385FB992790F91F929F9386FB9927E2
:100FF00090F91F929F931F928F9380ED90E09F93A3
:101000008F930E94C70A42E06AE08BEC91E00E9455
:10101000750444E06CE08EEB91E00E943D0441E0F9
:1010200060E185EB91E00E94750446E061E18AEAA7
:1010300091E00E943D0441E061E083EA91E00E947A
:101040003D0441E062E089E991E00E943D0441E015
:1010500065E082E991E00E943D0441E066E089E8B4
:1010600091E00E943D0441E060E081E891E00E944F
:101070003D0442E06CE183E791E00E943D0486E09C
:101080000E949B0388720FB6F894DEBF0FBECDBFDF
:10109000803241F021E090E0883009F020E0E22F3A
:1010A000F92F02C0E2E0F0E0EE0FFF1FE359FE4F20
:1010B000859194919F938F938BE591E09F938F936C
:1010C0000E94C70AE091FE01F0E0EE0FFF1FE95A0F
:1010D000FE4F859194919F938F9388E491E09F9325
:1010E0008F930E94C70A80E00E949B03182F81E023
:1010F0000E949B030FB6F894DEBF0FBECDBF13FD59
:1011000002C0882329F012FD06C0E1E0F0E005C02E
:10111000E0E0F0E002C0E2E0F0E0EE0FFF1FEE5B87
:10112000FE4F859194919F938F938FE291E09F93CF
:101130008F930E94C70A86E00E949B038670E82F67
:10114000F0E0E95DFE4F859194919F938F9386E146
:1011500091E09F938F930E94C70A0FB6F894DEBF69
:101160000FBECDBFC12C50ECD52E59E7E52E54EC67
:10117000F52E6AE0862E912CA12CB12CE7E5F2E049
:101180000491E3E4F2E08491E82FF0E0EE0FFF1F1A
:10119000E852FE4F2591349139AF28AF10924801A3
:1011A0001092490110924A0110924B0110924C0189
:1011B00061E082E00E94DB0160E082E00E947E014B
:1011C00062E170E080E090E00E94550361E082E01F
:1011D0000E947E018AE990E00197F1F760E082E0E9
:1011E0000E94DB0180E991E0E8ADF9AD2081202388
:1011F00019F40197C9F79EC180E991E0E8ADF9AD16
:101200002081202319F00197C9F794C128E2322EDA
:1012100010E8212C80E991E0E8ADF9AD2081202390
:1012200019F40197C9F786C10E9430032B013C01D4
:1012300080E991E0E8ADF9AD2081202319F0019714
:10124000C9F778C10E943003DC01CB0184199509EC
:10125000A609B7098997A105B10538F0E22DF0E09C
:10126000E05CFE4F8085812B8087169511F42394D6
:1012700010E83A943110CECF61E082E00E94DB01A9
:1012800061E082E00E947E016091480170E080E0B0
:1012900090E00E94E00D60934001709341018093C3
:1012A00042019093430160914A0170E080E090E038
:1012B0000E94E00D609344017093450180934601C4
:1012C000909347018091F7010E9419038FE00E94DB
:1012D000190380E00E94CB018091080290910902DD
:1012E0000E94E6028DE10E949B0381FF08C080916D
:1012F0000802909109020E94E6020E94B90380E070
:101300000E949B03682F6E7F80E00E94BC0382E0F6
:101310000E949B03EDE7F2E0949121E030E001C0F0
:10132000220F9A95EAF7682F622B82E00E94BC0395
:1013300086E0E0E1F1E0DE01D29601900D928A951F
:10134000E1F789E192E00E9471028091FF01682E2D
:10135000873010F096E0692E90910002911103C041
:10136000782E761801C0712C0E94980380EA0E94A2
:1013700017028E010E5C1F4F6A94FFEF6F1631F05B
:10138000F80181918F010E941702F6CF772029F092
:1013900080E00E9417027A94F9CF0E94950381E0C1
:1013A0000E94CB018FEF0E94AC038073D9F380E0E1
:1013B0000E94CB0160E787E00E94BC0384FD0E948D
:1013C000B9030E9407048FB7F89440901B01509016
:1013D0001C0160901D0170901E018FBF10E087E11D
:1013E0000E949B0380FDB7C0112329F08DEF91E08F
:1013F0000E94710290C00E94980380E60E9417022A
:101400008FEF0E941702482E0E94950320E22415B8
:1014100040F482EE0E94AC0362E070E080E090E075
:1014200080C0442009F47FC07090FF01642C7414C4
:1014300008F4672C80910002811102C0761801C067
:10144000712C0E94980381E60E9417020FE111E0BF
:10145000662041F08FEF0E941702F80181938F01FF
:101460006A94F6CF772029F08FEF0E9417027A94C2
:10147000F9CF0E94950360E787E00E94BC03E42D4A
:10148000F0E0E15EFE4F10828AEE91E00E94710270
:10149000512C612C712C19A28E010F5D1F4FC301BD
:1014A000B201A50194010E94B50D842DFAE02F9F91
:1014B00080191124015011098A3014F4805D01C093
:1014C000895CF801808329013A01232B242B252BE9
:1014D00031F70115110561F001900020E9F731970E
:1014E000AF01401B510BB80185ED91E00E94F10264
:1014F00082EE91E00E947102EFE1F1E001900020A4
:10150000E9F73197AF014F5151406FE171E085ED3F
:1015100091E00E94F1020E945F0268E873E180E0BE
:1015200090E00E9455030E94E20228CE81E0809361
:10153000FE0192CCC0924001D0924101E092420162
:10154000F0924301C0924401D0924501E0924601DD
:10155000F0924701B7CE111149CF2FB7F89480917F
:101560001B0190911C01A0911D01B0911E012FBF84
:1015700084199509A609B70911E0853F9140A10595
:10158000B10508F02CCF2ACFF8940C94230EA0E0DC
:10159000B0E0EDECFAE00C948C0DAE01495F5F4FCA
:1015A000DA016D917D91AD0100E112E0F8018281D7
:1015B0009381DC0113962C911397286013962C933A
:1015C0000E94ED0AD8011296ED91FC9113972381A8
:1015D000277F2383E4E00C94A80DABE0B0E0E3EFB9
:1015E000FAE00C947E0D6C017B018A01FC011782EC
:1015F0001682838181FFCCC1CE0101963C01F601A8
:101600009381F70193FD859193FF81917F01882359
:1016100009F4BAC1853239F493FD859193FF819124
:101620007F01853229F4B60190E00E94E40CE7CFF7
:10163000912C212C312CFFE1F315D8F08B3279F06D
:1016400038F4803279F08332A1F4232D20611DC05B
:101650008D3261F0803369F4232D216016C0832D13
:101660008260382EE32DE4603E2E2AC0F32DF86010
:101670001DC037FC2DC020ED280F2A3040F08E32DF
:10168000B9F436FC81C1232D2064322E19C036FEF8
:1016900006C08AE0989E200D1124922E11C0EAE027
:1016A0002E9E200D1124222EF32DF0623F2E08C015
:1016B0008C3621F4832D8068382E02C0883641F4A0
:1016C000F70193FD859193FF81917F018111B3CF44
:1016D000982F9F7D9554933028F40C5F1F4F9FE304
:1016E00099830DC0833631F0833771F0833509F06B
:1016F00059C021C0F801808189830E5F1F4F882463
:101700008394912C530113C02801F2E04F0E511C19
:10171000F801A080B18036FE03C0692D70E002C0E0
:101720006FEF7FEFC5010E94D90C4C018201F32DB0
:10173000FF773F2E16C0280122E0420E511CF8010F
:10174000A080B18036FE03C0692D70E002C06FEF4B
:101750007FEFC5010E94CE0C4C01F32DF0683F2EA7
:10176000820133FC1BC0822D90E088169906B0F4EC
:10177000B60180E290E00E94E40C2A94F4CFF501D7
:1017800037FC859137FE81915F01B60190E00E94A0
:10179000E40C21102A9421E0821A9108811491040A
:1017A00071F7E8C0843611F0893641F5F80137FE4B
:1017B00007C060817181828193810C5F1F4F08C0D7
:1017C00060817181072E000C880B990B0E5F1F4FF3
:1017D000F32DFF763F2E97FF09C090958095709569
:1017E00061957F4F8F4F9F4FF0683F2E2AE030E08A
:1017F000A3010E94200D882E861845C0853731F43C
:10180000232D2F7EB22E2AE030E025C0932D997F24
:10181000B92E8F36C1F018F4883579F0B5C080370D
:1018200019F0883721F0B0C0E92FE061BE2EB4FE78
:101830000DC0FB2DF460BF2E09C034FE0AC0292F55
:101840002660B22E06C028E030E005C020E130E07E
:1018500002C020E132E0F801B7FE07C0608171816B
:10186000828193810C5F1F4F06C06081718180E08F
:1018700090E00E5F1F4FA3010E94200D882E861856
:10188000FB2DFF773F2E36FE0DC0232D2E7FA22E7F
:10189000891458F434FE0BC032FC09C0832D8E7EAF
:1018A000A82E05C0B82CA32C03C0B82C01C0B92C9D
:1018B000A4FE0FC0FE01E80DF11D8081803321F4EC
:1018C0009A2D997EA92E09C0A2FE06C0B394B394A6
:1018D00004C08A2D867809F0B394A3FC11C0A0FE41
:1018E00006C0B21488F4280C922C9B180EC0B214B7
:1018F00060F4B60180E290E00E94E40CB394F7CF6C
:10190000B21418F42B1802C0982C212CA4FE10C07D
:10191000B60180E390E00E94E40CA2FE17C0A1FC97
:1019200003C088E790E002C088E590E0B6010CC0F3
:101930008A2D867859F0A1FE02C08BE201C080E2B8
:10194000A7FC8DE2B60190E00E94E40C891438F403
:10195000B60180E390E00E94E40C9A94F7CF8A9459
:10196000F301E80DF11D8081B60190E00E94E40CC6
:101970008110F5CF222009F442CEB60180E290E03A
:101980000E94E40C2A94F6CFF6018681978102C06A
:101990008FEF9FEF2B96E2E10C949A0DFC010590DE
:1019A000615070400110D8F7809590958E0F9F1F61
:1019B0000895FC016150704001900110D8F78095A6
:1019C00090958E0F9F1F08950F931F93CF93DF93D2
:1019D000FB01238121FD03C08FEF9FEF2CC022FF6D
:1019E00016C046815781248135814217530744F43C
:1019F000A081B1819D012F5F3F4F318320838C9364
:101A0000268137812F5F3F4F3783268314C08B0198
:101A1000EC01FB010084F185E02D0995892BE1F6AD
:101A2000D80116968D919C911797019617969C93C5
:101A30008E931697CE01DF91CF911F910F9108954C
:101A4000FA01AA27283051F1203181F1E8946F93EF
:101A50006E7F6E5F7F4F8F4F9F4FAF4FB1E03ED095
:101A6000B4E03CD0670F781F891F9A1FA11D680F33
:101A7000791F8A1F911DA11D6A0F711D811D911D66
:101A8000A11D20D009F468943F912AE0269F1124DB
:101A90003019305D3193DEF6CF010895462F47703F
:101AA000405D4193B3E00FD0C9F7F6CF462F4F709A
:101AB000405D4A3318F0495D31FD4052419302D0F8
:101AC000A9F7EACFB4E0A69597958795779567959E
:101AD000BA95C9F700976105710508959B01AC019E
:101AE0000A2E06945795479537952795BA95C9F7C5
:101AF000620F731F841F951FA01D08952F923F92A0
:101B00004F925F926F927F928F929F92AF92BF920D
:101B1000CF92DF92EF92FF920F931F93CF93DF93B9
:101B2000CDB7DEB7CA1BDB0B0FB6F894DEBF0FBE16
:101B3000CDBF09942A88398848885F846E847D8463
:101B40008C849B84AA84B984C884DF80EE80FD8065
:101B50000C811B81AA81B981CE0FD11D0FB6F894DB
:101B6000DEBF0FBECDBFED010895A1E21A2EAA1B64
:101B7000BB1BFD010DC0AA1FBB1FEE1FFF1FA2173D
:101B8000B307E407F50720F0A21BB30BE40BF50B3A
:101B9000661F771F881F991F1A9469F760957095C3
:101BA000809590959B01AC01BD01CF010895FB018B
:101BB000DC0102C001900D9241505040D8F70895C9
:101BC000E89409C097FB3EF49095809570956195D7
:101BD0007F4F8F4F9F4F9923A9F0F92F96E9BB278D
:101BE0009395F695879577956795B795F111F8CF09
:101BF000FAF4BB0F11F460FF1BC06F5F7F4F8F4F74
:101C00009F4F16C0882311F096E911C0772321F069
:101C10009EE8872F762F05C0662371F096E8862F01
:101C200070E060E02AF09A95660F771F881FDAF758
:101C3000880F9695879597F90895EE0FFF1F0590E9
:0A1C4000F491E02D0994F894FFCF11
:101C4A00000000001D02F102D2029602B6028B02C7
:061C5A007465737465005F
:00000001FF
